:100000000C9461010C9492010C9492010C94920155
:100010000C9492010C9492010C9492010C94920114
:100020000C9492010C9492010C9492010C94920104
:100030000C9492010C9492010C9492010C949201F4
:100040000C9492010C9492010C9492010C949201E4
:100050000C9492010C9492010C9492010C940E1049
:100060000C9492010C9482100C9458100C949201F0
:100070000C9492010C9492010C9492010C949201B4
:100080000C9492010C9492010C9492010C949201A4
:100090000C9492010C9492010C9492010C94B8105F
:1000A0000C9492010C9492010C9492010C94920184
:1000B0000C9492010C9492010C9492010C94920174
:1000C0000C9492010C9492010C9492010C94920164
:1000D0000C9492010C9492010C9492010C94920154
:1000E0000C9492010C9425070C94DD010C940603EA
:1000F0000C9494010C94F6060C94C6010C94140311
:100100000C944F0B0C94E1010C9418020C947F0B8F
:100110000C94FC010C94C9060C94230F0C947908E0
:100120000C94B6020C94EC010C94E9010C94960D1D
:100130000C940E020C9499030C944C030C94EA0357
:100140000C94AF060C940A020C9495010C947A0856
:100150000C9404020C94C2060C94A0060C94120297
:100160000C94E3020C94CB010C94E5010C94510B1C
:100170000C94DC110C94530B0C94C80B0C941C02C3
:100180000C94EB030C94F2010C94120E0C94920E4E
:100190000C94F6010C9400020C94F2020C949F064D
:1001A000000020002300260029002C002F00320030
:1001B00000010000030106010901000021002400E4
:1001C00027002A002D003000330001010000040147
:1001D00007010A0100002200250028002B002E0044
:1001E0003100340002010000050108010B0100008C
:1001F0000A0B02090C0D0E080703040100000000A1
:1002000000000000000000000000000000000000EE
:1002100000000000000000000000121110000000AB
:1002200000000000000000000000000000000000CE
:10023000000000000505050507050808080802027A
:1002400002020A0A08080404040401010101010170
:1002500001010303030303030303040707070C0C53
:100260000C0C0C0C0C0C020202020606060606061A
:1002700006060B0B0B0B0B0B0B0B010210202008BF
:1002800008102040102040800201020108040201F1
:100290000102040810204080804020100804020160
:1002A00080040201804020100804020108040201B9
:1002B0000102040810204080010204081020408040
:1002C000DC1111241FBECFEFD1E2DEBFCDBF00E0B5
:1002D0000CBF12E0A0E0B2E0E8E3F1E300E00BBF06
:1002E00002C007900D92AA3FB107D9F724E0AAEF08
:1002F000B2E001C01D92A13CB207E1F711E0C1E6F6
:10030000D1E000E006C021970109802FFE010E9484
:100310000815C036D10780E00807A9F70E948112AE
:100320000C949A180C94000008950895282F30E03A
:10033000F901E251FE4F9491F901E658FD4F4491C5
:100340002C5C3D4FF9012491222309F435C09923F7
:1003500011F191509231F8F4E92FF0E08827EC5434
:10036000FE4F8F4F0C940815E501E901C601DD0130
:10037000E101CB01EC01F201F601FC0100020402F3
:100380000A020E02CB01120218021C0280918000A8
:100390008F7780938000E22FF0E0EE0FFF1FEC528A
:1003A000FE4FA591B4918FB7F894EC91611148C0BC
:1003B00040954E234C938FBF0895809180008F7D90
:1003C000E8CF80918000877FE4CF84B58F7784BDAC
:1003D000E2CF84B58F7DFBCF8091B0008F77809383
:1003E000B000D9CF8091B0008F7DF9CF809190007F
:1003F0008F7780939000CFCF809190008F7DF9CF41
:1004000080919000877FF5CF8091A0008F778093B7
:10041000A000C1CF8091A0008F7DF9CF8091A00076
:10042000877FF5CF809120018F7780932001B3CF14
:10043000809120018F7DF9CF80912001877FF5CFBA
:100440004E2BB8CFCF93DF9390E0FC01E658FD4FE1
:1004500024918C5C9D4FFC0184918823D1F090E025
:10046000880F991FFC01E654FE4FA591B491FC0141
:10047000EC52FE4FC591D491623071F49FB7F8945D
:100480003C91822F809583238C93E8812E2B2883A7
:100490009FBFDF91CF9108958FB7F894EC912E2BE9
:1004A0002C938FBFF6CF3FB7F89480915D03909166
:1004B0005E03A0915F03B091600326B5A89B05C0C1
:1004C0002F3F19F00196A11DB11D3FBFBA2FA92FD3
:1004D000982F8827BC01CD01620F711D811D911DD0
:1004E00042E0660F771F881F991F4A95D1F708953C
:1004F0008F929F92AF92BF92CF92DF92EF92FF9234
:100500004B015C010E9453026B017C010E9453026B
:100510006C197D098E099F09683E7340810591051C
:10052000A8F321E0821A9108A108B10888EEC80E4C
:1005300083E0D81EE11CF11C81149104A104B104D4
:1005400029F7FF90EF90DF90CF90BF90AF909F90F2
:100550008F9008952FB7F8946091590370915A03C2
:1005600080915B0390915C032FBF0895AF92BF927F
:10057000CF92DF92EF92FF920F931F93CF93DF936F
:100580006C017B018B01040F151FEB015E01AE189E
:10059000BF08C017D10759F06991D601ED91FC91C0
:1005A0000190F081E02DC6011995892B79F7C501DD
:1005B000DF91CF911F910F91FF90EF90DF90CF903F
:1005C000BF90AF900895FC01538D448D252F30E0EE
:1005D000842F90E0821B930B541710F0CF96089550
:1005E00001970895FC01918D828D981761F0A28D7D
:1005F000AE0FBF2FB11D5D968C91928D9F5F9F7343
:10060000928F90E008958FEF9FEF0895FC01918DF8
:10061000828D981731F0828DE80FF11D858D90E065
:1006200008958FEF9FEF0895FC01918D228D892F02
:1006300090E0805C9F4F821B91098F7399270895EA
:1006400087ED93E00E94140321E0892B09F420E058
:10065000822F0895FC01A48DA80FB92FB11DA35AB4
:10066000BF4F2C91848D90E001968F739927848FD2
:10067000A689B7892C93A089B1898C9183708064F5
:100680008C93938D848D981306C00288F389E02D96
:1006900080818F7D80830895EF92FF920F931F9347
:1006A000CF93DF93EC0181E0888F9B8D8C8D981325
:1006B0001AC0E889F989808185FF15C09FB7F89431
:1006C000EE89FF896083E889F9898081837080647D
:1006D00080839FBF81E090E0DF91CF911F910F91C8
:1006E000FF90EF900895F62E0B8D10E00F5F1F4FD7
:1006F0000F731127E02E8C8D8E110CC00FB607FCE6
:10070000FACFE889F989808185FFF5CFCE010E9473
:100710002A03F1CFEB8DEC0FFD2FF11DE35AFF4FB4
:10072000F0829FB7F8940B8FEA89FB898081806201
:10073000CFCFCF93DF93EC01888D8823B9F0AA89BE
:10074000BB89E889F9898C9185FD03C0808186FD8C
:100750000DC00FB607FCF7CF8C9185FFF2CF8081DB
:1007600085FFEDCFCE010E942A03E9CFDF91CF9123
:10077000089580E090E0892B29F00E9420038111E8
:100780000E94000080E090E0892B49F080E090E03A
:10079000892B29F00E94000081110E94000080E056
:1007A00090E0892B49F080E090E0892B29F00E94AD
:1007B000000081110E94000080E090E0892B49F048
:1007C00080E090E0892B29F00E94000081110C94B8
:1007D000000008950895FC016683089520911B038D
:1007E000260F3327331F21323105ECF42091AD035E
:1007F000FC0190E080E0243069F082E00895A0914F
:100800001B032191AC0145505D4FA40FB52FB11DC5
:100810002C930196861798F380911B03680F6093C1
:100820001B0380E0089581E008951092AD0381E0FC
:100830008093AC031092870361E084E10E949601EB
:1008400061E085E10E949601E9EBF0E080818E7F16
:10085000808380818D7F808388E48093B80085E4E5
:100860008093BC0008951092660310926503109265
:10087000B4031092D6030E94150484E991E090938A
:1008800064038093630385E991E09093620380930E
:1008900061030895CF93DF9391E09093FA02882348
:1008A000B9F0C091B800D091BA008091BC008A7BA9
:1008B0008093BC0060E084E10E94960160E085E1E5
:1008C0000E9496010E941504D093BA00C093B8000C
:1008D000DF91CF9108958F929F92AF92BF92CF9266
:1008E000DF92EF92FF920F931F93CF93DF93D091FC
:1008F000D603D13208F0D7C0182FC091D5030E947B
:1009000053026B017C018091AD0381116BC082E0C9
:100910008093AD031093AC038FEF8093AB031092E1
:10092000AA03D093A903A5EBB3E0E9E8F3E080E0E4
:10093000D81391C01092880380918803CC0FC82BE4
:10094000C093880380918703813009F088C010929A
:1009500087030E9453026B017C018091880380937E
:10096000BB008091AF039091B003A091B103B0910F
:10097000B203892B8A2B8B2BA1F00E94530200918A
:10098000AF031091B0032091B1033091B2036C1901
:100990007D098E099F09061717072807390708F4EC
:1009A00042C08091BC0083FDD8CF85EC8093BC0011
:1009B0000E9453026B017C018091AD03823009F4E7
:1009C00050C08091AB038F3F09F46FC08091AB039F
:1009D000803209F46CC08091AB03803309F469C0A4
:1009E00084E026C08091AF039091B003A091B10341
:1009F000B091B203892B8A2B8B2B09F484CF0E94F0
:100A000053028090AF039090B003A090B103B090D8
:100A1000B2036C197D098E099F0986169706A806F0
:100A2000B90608F070CF8091AE030E944A0485E0B9
:100A30001092B4031092D6031092B303DF91CF91BA
:100A40001F910F91FF90EF90DF90CF90BF90AF90EC
:100A50009F908F9008959D9191938F5F69CF85EEC0
:100A6000A5CF8091AF039091B003A091B103B09155
:100A7000B203892B8A2B8B2B09F49ECF0E94530241
:100A80000091AF031091B0032091B1033091B203F4
:100A90006C197D098E099F09061717072807390762
:100AA00008F08ACFC0CF81E0C3CF80E0C1CF82E021
:100AB000BFCF83E0BDCFCF93DF93EA01DC01119676
:100AC0008D919C91DC01ED91FC910280F381E02DF0
:100AD0001995C817D90729F481E00E946B0491E0A9
:100AE000811190E0892FDF91CF910895CF93DF930B
:100AF000EC018B818823A1F0888191E09093B3036E
:100B00008093D5031092B4031092D60381E00E9423
:100B10006B0491E0811190E0892FDF91CF910895CE
:100B20000E94330481E08B83CE010E947605982FCA
:100B30008111E2CFF1CF1F93CF93DF93EC01142FFC
:100B40008A819B812C8131E03093B3032093D503BC
:100B50001092B4031092D603DC01ED91FC91019048
:100B6000F081E02D19958A819B81DC01ED91FC914A
:100B70000190F081E02D612F199581E0DF91CF91F7
:100B80001F910C946B0440E060E80C949B058F92DD
:100B90009F92AF92BF92CF92DF92EF92FF920F930C
:100BA0001F93CF93DF93D82FC62F142F613208F0F5
:100BB0009CC00E9453026B017C018091AD038111A6
:100BC0006FC081E08093AD031093AC039FEF9093CF
:100BD000AB031092AA039C0F9093A9038093880300
:100BE00080918803DD0FD82BD093880380918703F1
:100BF000813009F07CC0109287030E9453026B0180
:100C00007C01809188038093BB008091AF03909119
:100C1000B003A091B103B091B203892B8A2B8B2B27
:100C2000A1F00E9453020091AF031091B0032091F4
:100C3000B1033091B2036C197D098E099F09061723
:100C400017072807390708F44CC08091BC0083FDC2
:100C5000D8CF85EC8093BC000E9453026B017C01CD
:100C60008091AD03813009F444C08091AA038C17B0
:100C700010F4C091AA03E9E8F3E0A7E6B3E080E04E
:100C80008C1359C08C2FDF91CF911F910F91FF9042
:100C9000EF90DF90CF90BF90AF909F908F9008958E
:100CA0008091AF039091B003A091B103B091B203D2
:100CB000892B8A2B8B2B09F480CF0E9453028090C2
:100CC000AF039090B003A090B103B090B2036C1941
:100CD0007D098E099F0986169706A806B90608F0B1
:100CE0006CCF8091AE030E944A04C0E0CBCF85EE6A
:100CF000B1CF8091AF039091B003A091B103B091B7
:100D0000B203892B8A2B8B2B09F4AACF0E945302A2
:100D10000091AF031091B0032091B1033091B20361
:100D20006C197D098E099F090617170728073907CF
:100D300008F096CFD6CF91919D938F5FA1CF089564
:100D4000E091660380916503E81730F4F0E0E9591B
:100D5000FC4F808190E008958FEF9FEF0895909170
:100D60006603809165032FEF3FEF981748F4E92F52
:100D7000F0E0E959FC4F208130E09F5F90936603DB
:100D8000C90108958091650390916603891B990BB1
:100D90000895CF92DF92EF92FF920F931F93CF931C
:100DA000DF937C01CB018A012091B303222389F0D8
:100DB000EB016B01C40ED51ECC15DD0569F0699100
:100DC000D701ED91FC910190F081E02DC7011995BB
:100DD000F3CF642F0E94EE03C801DF91CF911F91E2
:100DE0000F91FF90EF90DF90CF900895CF93DF9316
:100DF0001F92CDB7DEB769832091B3032223F9F0A8
:100E00002091D603203258F021E030E0FC013383FA
:100E1000228390E080E00F90DF91CF910895809140
:100E2000B403E82FF0E0EB54FC4F998190838F5F7F
:100E30008093B4038093D60381E090E0ECCF61E02F
:100E4000CE0101960E94EE03F7CF90E080E0089576
:100E5000CF92DF92EF92FF92CF93DF93DC01179650
:100E6000CC911797D0E06111DC2F18962C91189730
:100E700030E0220F331F20563E4F50E040E0F90192
:100E800085919491FC01F080BA0190E080E0EF2D13
:100E9000EC23ED1310C04F5F5F4F1D96CD90DD909A
:100EA000ED90FC9050976C157D058E059F0538F3ED
:100EB0006FEF7FEFCB01DF91CF91FF90EF90DF904D
:100EC000CF9008958F929F92AF92BF92CF92DF9270
:100ED000EF92FF920F931F93CF93DF93CDB7DEB7BF
:100EE000C054D1400FB6F894DEBF0FBECDBF8C0109
:100EF0000E94AA02F801C184D284E384F4849B0195
:100F0000AC012C193D094E095F0969017A0130EDE8
:100F1000C31637E0D306E104F104A8F48189C05C6C
:100F2000DE4F0FB6F894DEBF0FBECDBFDF91CF917D
:100F30001F910F91FF90EF90DF90CF90BF90AF90F7
:100F40009F908F900895618772878387948714821A
:100F5000138212821182108262E085810E94220235
:100F600061E070E080E090E00E94780261E0F801CA
:100F700085810E94220260E0F80185810E9496012D
:100F8000F80186818551823028F58BE291E1019745
:100F9000F1F762E0F80185810E942202F80182895E
:100FA00090E08230910538F0880F991F880F991FC3
:100FB00005970197F1F7F89460E0C8010E942807AF
:100FC0006F3F7F4F8F4F9F4F61F4F801118A7894E4
:100FD00080E0A5CF64E170E080E090E00E947802BC
:100FE000D8CF61E0C8010E9428076F3F7F4F8F4F25
:100FF0009F4F59F39E012F5F3F4F79015E013FEBF9
:10100000A31A3EEFB30A670160E0C8010E942807F7
:10101000F601608371838283938361E0C8010E943B
:101020002807F6016483758386839783F8E0CF0EE3
:10103000D11CCA14DB0441F7789430E020E0F701BA
:1010400080809180A280B3804481558166817781C0
:10105000FFEF8F169F06AF06BF0631F04F3F8FEFB1
:1010600058076807780719F4F801118AB1CFF90118
:1010700083E0F595E7958A95E1F7E00FF11F808110
:10108000880F84169506A606B706F0F080832F5FBA
:101090003F4FF8E0EF0EF11C2832310581F6F801E0
:1010A000448120818181280F3327331F8281280FBB
:1010B000311D8381820F932F911D9927481719069F
:1010C00099F681E0818B2BCF8160E0CFFC01838991
:1010D0008B3051F480E492E4AFE0B0E0FB0184A3F4
:1010E00095A3A6A3B7A3089580E894E8AEE1B0E085
:1010F000F5CF089508958093BA047093BB0460936C
:10110000BC048091B3049091B404FC012481358126
:101110002330310580F0208131E03093B3032093F8
:10112000D5031092B4031092D60343E050E06AEB6B
:1011300074E00C945B0508950F931F93CF93DF9396
:10114000EC018A819B812C8131E03093B3032093A1
:10115000D5031092B4031092D603DC01ED91FC91FB
:101160000190F081E02D199581E00E946B0441E02F
:1011700062E08C810E94C70510926603809365032C
:101180008A819B81DC01ED91FC910284F385E02D45
:1011900019958C018A819B81DC01ED91FC9102847F
:1011A000F385E02D199520E0382FC801822B932B71
:1011B000DF91CF911F910F910895EF92FF920F93BE
:1011C0001F93CF93DF93EC017B018A0143E060E83A
:1011D0000E949B058F819885009739F0019711F146
:1011E00062EC71E080E090E004C06FE070E080E0CD
:1011F00090E00E9478026CEACE010E949C08F70100
:10120000918380836EEACE010E949C08F80191834D
:101210008083CE01DF91CF911F910F91FF90EF90CE
:101220000C94C30568E770E080E090E0E2CFAF92F5
:10123000BF92CF92DF92EF92FF920F931F93CF93C3
:10124000DF938093BA048091B3049091B404DC01DD
:1012500014962D913C911597232B81F02C9131E020
:101260003093B3032093D5031092B4031092D603A6
:1012700041E050E06AEB74E00E945B05C090B3046B
:10128000D090B404D0E0C0E082E0A82EB12CF601EA
:101290008481958185010C1B1D0B8017910708F433
:1012A0008C0141E0C501801B910BC817D90708F4D8
:1012B00040E0602FD6018C910E94C7051092660312
:1012C000809365038017110619F5FE01ED54FB4F5D
:1012D0007F01C7018C1B9D0B835B94408017910796
:1012E00088F4D60111968D919C91DC01ED91FC91D1
:1012F0000284F385E02D1995F7018783FFEFEF1A3C
:10130000FF0AE7CFC00FD11FC230D10508F4BFCF0D
:101310008091BA049091BB04982789279827DF9180
:10132000CF911F910F91FF90EF90DF90CF90BF90E2
:10133000AF9008950F931F93CF93DF93EC0184E751
:1013400094E09B838A830E9433048A819B812C8151
:1013500011E01093B3032093D5031092B4031092BD
:10136000D603DC01ED91FC910190F081E02D6AE063
:10137000199581E00E946B0441E061E08C810E943C
:10138000C70510926603809365038A819B81DC0107
:10139000ED91FC910284F385E02D1995857009F596
:1013A0001D831F81088543E060E8CE010E949B05F4
:1013B0004985412B61E8CE010E949B051F83088768
:1013C000CE010E94C30569857A85CE010E94F3098A
:1013D000CE010E94C30581E0DF91CF911F910F9153
:1013E000089580E0F9CF0F931F93CF93DF93EC0123
:1013F000162F072F8D81811103C0CE010E949A09FB
:1014000043E060E8CE010E949B054F81412B61E8DB
:10141000CE010E949B0519870A87CE01DF91CF91EB
:101420001F910F910C94C305FC0101900020E9F776
:101430003197AF01481B590BBC0187ED93E00C9429
:10144000B6028F929F92AF92BF920F931F93CF934A
:10145000DF93CDB7DEB7A1970FB6F894DEBF0FBE0E
:10146000CDBF19A2423008F44AE08E010F5D1F4F34
:10147000842E912CB12CA12CA50194010E94E6147C
:10148000E62FB901CA01EA30F4F4E05DD801EE9329
:101490008D01232B242B252B79F790E080E01097EA
:1014A00019F0CD010E94140AA1960FB6F894DEBF80
:1014B0000FBECDBFDF91CF911F910F91BF90AF9025
:1014C0009F908F900895E95CE1CFCF93DF930E94C6
:1014D000140AEC0184E592E00E94140A8C0F9D1F0F
:1014E000DF91CF9108954F925F926F927F928F928A
:1014F0009F92AF92BF92CF92DF92EF92FF920F93A3
:101500001F93CF936B017C01742EAC019B010E9451
:101510006117882399F087E592E0CF911F910F9191
:10152000FF90EF90DF90CF90BF90AF909F908F9003
:101530007F906F905F904F900C94140A4601570172
:10154000E894B7F82FEF3FEF4FE75FE7C501B4012D
:101550000E94611781110DC02FEF3FEF4FE75FE74A
:10156000C501B4010E94971518161CF48BE592E092
:10157000D4CF2FEF3FEF4FE75FE4C701B6010E94E2
:10158000EF1618161CF48FE592E0C7CF2FEF3FEF50
:101590004FE75FECC701B6010E94971587FDF3CFB7
:1015A00020E030E0A901C701B6010E94971510E0C4
:1015B00000E087FF0AC06DE287ED93E00E944C03D4
:1015C0008C01F7FAF094F7F8F094C0E060E070E076
:1015D00080E09FE37C1641F020E030E040E251E4FF
:1015E0000E949C15CF5FF6CFA70196010E942B1594
:1015F0002B013C010E940E164B015C014AE00E9447
:10160000210A7C01E00EF11ECC23C1F1C501B40119
:101610000E943D169B01AC01C301B2010E942A1534
:101620004B015C016EE287ED93E00E944C03E80EF3
:10163000F91EC15018F120E030E040E251E4C5014C
:10164000B4010E94F4162B013C010E940E164B01BE
:10165000B12CA12C4AE0C501B4010E94210AE80E78
:10166000F91EC501B4010E943D169B01AC01C301E6
:10167000B2010E942A154B015C01DBCFC701CF915B
:101680001F910F91FF90EF90DF90CF90BF90AF90A0
:101690009F908F907F906F905F904F9008950C94E3
:1016A00002180C9402180C940218CF93DF93EB01EC
:1016B000FC0183894BE050E069E672E08C30C1F0B8
:1016C00058F44BE050E063E672E08B3089F04BE079
:1016D00050E06BE772E00CC04BE050E06FE672E068
:1016E000853131F04BE050E065E772E0863179F703
:1016F000CE010E948B181B86DF91CF9108950F9326
:101700001F93CF93DF938C01EB0188E2FB011192D1
:101710008A95E9F74BE050E060E872E0CE010E9464
:101720008B181B8681E090E0A0E0B0E08C879D875D
:10173000AE87BF87F80183859485A585B685888B9C
:10174000998BAA8BBB8B85E090E0A0E0B0E08C8BFE
:101750009D8BAE8BBF8B1CA21DA21EA21FA280E080
:1017600090EDA4E8B6E4888F998FAA8FBB8F80E0B4
:1017700090E0A0E8BFE38C8F9D8FAE8FBF8F88A3D2
:1017800099A3AAA3BBA3DF91CF911F910F910895B5
:101790004F925F926F927F928F929F92AF92BF9281
:1017A000CF92DF92EF92FF920F931F93CF93DF932D
:1017B00000D000D01F921F92CDB7DEB78C017B0105
:1017C000FB01349680E2DF011D928A95E9F784E2FD
:1017D00090E0A0E0B0E0FB0180839183A283B3831B
:1017E000F80183859485A585B685FB01848395835F
:1017F000A683B78385E090E0A0E0B0E08087918782
:10180000A287B3870E94AA02D70150966D937D9359
:101810008D939C935397F8018581811103C0C80172
:101820000E949A09D80116968C911697882309F47C
:101830005DC017968D919C9154E6852E912C62EF98
:10184000A62E62E1B62E009789F078EC872E912CB7
:10185000E0EAAE2EECE8BE2E019741F034EF832E85
:101860009924939448E1A42E46EFB42EAE014F5F25
:101870005F4FBE016D5F7F4FC8010E94DD088B8105
:101880009C818815990590F0A816B90640F4F801D6
:101890002185328570E060E02031310579F09E834A
:1018A0008D8389819A8198878F8329C0D801199661
:1018B0002D913C91232B99F760E170E0C8010E94C3
:1018C000F309AE014F5F5F4FBE016D5F7F4FC801EF
:1018D0000E94DD08AE014F5F5F4FBE016D5F7F4F1D
:1018E000C8010E94DD088B819C81D9CFAE01495F80
:1018F0005F4FBE016B5F7F4FC8010E94DD08AD8165
:10190000BE81F8018781908524E233E1009739F0A8
:1019100028E830E98130910511F028EE3DEF2A17D3
:101920003B0708F4FEC0CF80D8842C153D0508F491
:10193000F8C0009709F4C7C027EE422E2FE0522EC0
:10194000612C712C019729F0412C94E0592E612CC7
:10195000712CF80181859285892B39F4F4E0440CCF
:10196000551C661C771CFA95D1F7A30192010E94C1
:1019700010154B015C016AE0B694A7949794879484
:101980006A95D1F7D6010E9410152B013C01EAE0BF
:101990007694679457944794EA95D1F720E030E025
:1019A000A90181149104A104B10431F066277C7F60
:1019B000A50194010E94E614DA01C9010196A11D56
:1019C000B11DB695A7959795879581349105A10589
:1019D000B10508F47FC081389105A105B10508F46F
:1019E0007EC0813C9105A105B10508F47DC0813020
:1019F000F1E09F07A105B10508F47BC0893321E020
:101A00009207A105B10508F479C08B39E1E09E0782
:101A1000A105B10508F477C08B399240A105B10545
:101A200008F476C0F0E0E0E0B0E0A0E0A5019401A9
:101A30000E9410154B015C01DF01A30192010E947D
:101A40001015681579058A059B0508F066C0861A89
:101A5000970AA80AB90A20E2920EA11CB11CC5017E
:101A6000B4012EE096958795779567952A95D1F7DD
:101A70000E943D16D70154966D937D938D939C9350
:101A8000579711E020E030E040E857E40E949715B6
:101A9000811101C010E0812F28960FB6F894DEBFA7
:101AA0000FBECDBFDF91CF911F910F91FF90EF90AF
:101AB000DF90CF90BF90AF909F908F907F906F906E
:101AC0005F904F90089587E1482E85E7582E612C4E
:101AD000712C3FCFEEEBF1E0A2EFB1E0A7CFE1ED4B
:101AE000F2E0A4E1B2E0A2CFEBE7F3E0AFE3B2E0D3
:101AF0009DCFEEEFF3E0A0E7B2E098CFECEFF1E09E
:101B0000AFE6B1E093CFEBEFF0E0A2EDB0E08ECF27
:101B1000E2E1F0E0A8E1B0E089CF812C912C540102
:101B20009ACF60E070E081E090E0A2CF0F931F9326
:101B3000CF93DF938C01EB0188E2DB011D928A9544
:101B4000E9F7F801828193810E94550B81E090E0D2
:101B5000A0E0B0E08C879D87AE87BF87F8018481C5
:101B60009581A681B781888B998BAA8BBB8B8CE0E2
:101B700090E0A0E0B0E08C8B9D8BAE8BBF8BBE0164
:101B8000828193810E946608D8011296ED91FC91A2
:101B900083898C3009F441C078F48B3009F1188EB8
:101BA000198E1A8E1B8E1C8E1D8E1E8E1F8E18A2D5
:101BB00019A21AA21BA22CC08551823080F780E0A6
:101BC00090E0A8ECB2E4888F998FAA8FBB8F1C8E0F
:101BD0001D8E1E8E1F8E8DEC9CECACECBDE314C0F4
:101BE00080E090E0A0EAB2E4888F998FAA8FBB8F43
:101BF00080E090E0A0EAB1E48C8F9D8FAE8FBF8F24
:101C000080E090E0A0EAB0E488A399A3AAA3BBA3D4
:101C1000DF91CF911F910F91089580E090E0AEEB9E
:101C2000B2E4E2CFCF92DF92EF92FF920F931F9335
:101C3000CF93DF938C01EB01FB01349680E2DF014F
:101C40001D928A95E9F784E290E0A0E0B0E08883F5
:101C50009983AA83BB83F80184819581A681B7818A
:101C60008C839D83AE83BF838CE090E0A0E0B0E0E6
:101C700088879987AA87BB870E94AA02688B798B7D
:101C80008A8B9B8BD80112960D911C91C8010E94E2
:101C90006207882349F0F80186818B3028F08D3067
:101CA00040F08551823070F160E070E080EC9FE799
:101CB0001BC0618170E090E080E00E943F162DEC37
:101CC0003CEC4CEC5DE30E94F4166B017C01F801E6
:101CD000608170E090E080E00E943F169B01AC01C3
:101CE000C701B6010E942B156C8B7D8B8E8B9F8B51
:101CF00081E0DF91CF911F910F91FF90EF90DF90E6
:101D0000CF9008956081718176276727762790E0CC
:101D100080E00E943D162DEC3CEC4CEC5DE30E9413
:101D2000F416E2CF0F931F93CF93DF938C01EB0157
:101D300088E2DB011D928A95E9F7F801828193819F
:101D40000E94550B81E090E0A0E0B0E08C879D8779
:101D5000AE87BF87F80184819581A681B781888B82
:101D6000998BAA8BBB8B8DE090E0A0E0B0E08C8BD0
:101D70009D8BAE8BBF8BBE01828193810E946608D2
:101D8000D8011296ED91FC9183898C3091F178F411
:101D90008B30B1F0188E198E1A8E1B8E1C8E1D8EF4
:101DA0001E8E1F8E18A219A21AA21BA21DC0853159
:101DB000A9F1863179F780E090E0AAEFB2E432C071
:101DC00080E090E0A8E4B2E4888F998FAA8FBB8F5F
:101DD0001C8E1D8E1E8E1F8E80E090E0A0E0B0E471
:101DE00088A399A3AAA3BBA3DF91CF911F910F91C1
:101DF000089580E090E0A0E7B2E4888F998FAA8FE1
:101E0000BB8F80E090E0A0EAB1EC8C8F9D8FAE8F0D
:101E1000BF8F80E090E0A0E0BFE3E2CF80E090E001
:101E2000A0EAB2E4888F998FAA8FBB8F80E090E000
:101E3000A0E2B2EC8C8F9D8FAE8FBF8F8DEC9CECAF
:101E4000ACECBDE3CDCF8F929F92AF92BF92EF9259
:101E5000FF921F93CF93DF937C01EB01FB0134963C
:101E600080E2DF011D928A95E9F784E290E0A0E02C
:101E7000B0E088839983AA83BB83F701848195812D
:101E8000A681B7818C839D83AE83BF838DE090E074
:101E9000A0E0B0E088879987AA87BB870E94AA0242
:101EA000688B798B8A8B9B8BD7011296ED90FC9077
:101EB000C7010E946207882341F0F70186818C30B8
:101EC00009F455C038F48B30E1F060E070E080EC4C
:101ED0009FE73EC085518230C0F71281612F70E0CC
:101EE000762F662766277F778381682B90E080E0D6
:101EF0000E943D162DEC3CEC4CEC5DE30E94F41688
:101F000051C0628170E090E080E00E943D164B017C
:101F10005C01F701138117FF0AC0AC019B0160E06F
:101F200070E080E89FEB0E942A154B015C011F7056
:101F3000612F70E090E080E00E943F162DEC3CECB9
:101F40004CEC5DE30E94F416A50194010E942B1550
:101F50006C8B7D8B8E8B9F8B81E0DF91CF911F915E
:101F6000FF90EF90BF90AF909F908F900895128157
:101F7000612F70E090E080E00E943D164B015C0113
:101F8000F70163816F7070E090E080E00E943F167F
:101F90002DEC3CEC4CEC5DE30E94F416A5019401A1
:101FA0000E942B1517FFD4CF9058D2CF85ED809388
:101FB000BC008091AF039091B003A091B103B091A8
:101FC000B2030796A11DB11D23E0B695A79597957D
:101FD00087952A95D1F72091BC0024FD03C010926B
:101FE000AD0308954091AF035091B0036091B103E8
:101FF0007091B203452B462B472B69F30097A1053F
:10200000B10541F02AE22A95F1F700C00197A10934
:10201000B109E1CF8091AE030C944A041F920F9254
:102020000FB60F9211242F933F938F939F93AF93EB
:10203000BF938091590390915A03A0915B03B09193
:102040005C033091580323E0230F2D3758F5019698
:10205000A11DB11D209358038093590390935A03F7
:10206000A0935B03B0935C0380915D0390915E034A
:10207000A0915F03B09160030196A11DB11D8093F3
:102080005D0390935E03A0935F03B0936003BF91E1
:10209000AF919F918F913F912F910F900FBE0F9015
:1020A0001F90189526E8230F0296A11DB11DD2CFCF
:1020B0001F920F920FB60F9211240BB60F922F930F
:1020C0003F934F935F936F937F938F939F93AF93C0
:1020D000BF93EF93FF9387ED93E00E942A03FF9154
:1020E000EF91BF91AF919F918F917F916F915F9190
:1020F0004F913F912F910F900BBE0F900FBE0F90FD
:102100001F9018951F920F920FB60F9211240BB6C5
:102110000F922F938F939F93EF93FF93E091E70399
:10212000F091E8038081E091ED03F091EE0382FDF0
:102130001DC090818091F0038F5F8F732091F10318
:10214000821741F0E091F003F0E0E952FC4F958FE7
:102150008093F003FF91EF919F918F912F910F90BA
:102160000BBE0F900FBE0F901F9018958081F2CF7D
:102170001F920F920FB60F9211240BB60F922F934E
:102180003F934F935F936F937F938F939F93AF93FF
:10219000BF93EF93FF938091B900887F803609F455
:1021A0004DC008F040C0883209F4A9C028F580313C
:1021B00009F49DC0C8F4882309F4FBC0883009F4F1
:1021C00096C0FF91EF91BF91AF919F918F917F91B9
:1021D0006F915F914F913F912F910F900BBE0F9098
:1021E0000FBE0F901F901895883109F488C0803277
:1021F00041F78093AB0314C0803409F49DC040F4D0
:102200008033B9F38833E9F68093AB0385ECB0C033
:10221000803509F485C0883509F496C0883489F67C
:102220000E94D60FCECF883909F48CC038F5883794
:1022300029F050F4883611F0803719F683E0809346
:10224000AD0310923D0357C0883809F47BC0803934
:1022500019F0803809F0B5CF80913D03803208F045
:1022600071C0E0913D0381E08E0F80933D0380912A
:10227000BB00F0E0E35EFC4F80833DC0803B39F063
:10228000E0F4803A09F479C0883A09F09ACF84E002
:102290008093AD0310921C0310921B03E091630323
:1022A000F0916403199580911B0381110FC081E0A7
:1022B00080931B031092FB0209C0803C09F4A6CF57
:1022C000883C09F4A3CF883B09F07BCFE0911C0345
:1022D00081E08E0F80931C03F0E0E550FD4F80817C
:1022E0008093BB0090911C0380911B0329C08091B7
:1022F00088038093BB0085EC8093BC0062CF9091F3
:10230000AA038091A903981758F5E091AA0381E0E8
:102310008E0F8093AA03F0E0E757FC4F8081E9CF4E
:10232000E091AA0381E08E0F8093AA038091BB0005
:10233000F0E0E757FC4F80839091AA038091A903B6
:102340009817C8F285E8D8CFE091AA0381E08E0FF4
:102350008093AA038091BB00F0E0E757FC4F808395
:102360008091AC0381115CCF81E08093870384EA84
:102370008093BC001092AD0324CF85EC8093BC0009
:102380001092AD0380913D03803230F4E0913D0323
:10239000F0E0E35EFC4F108260913D0370E0E0915D
:1023A0006103F09162038DE193E0199510923D0372
:1023B00008CF1092AB0334CFE7EDF3E01382128223
:1023C00088EE93E0A0E0B0E084839583A683B78392
:1023D0002AE032E03183208325EC30E03587248702
:1023E00024EC30E03787268720EC30E0318B208BDF
:1023F00021EC30E0338B228B22EC30E0358B248BC8
:1024000026EC30E0378B268B118E128E138E148EB5
:10241000E4E7F4E01382128284839583A683B78372
:102420008CE192E091838083E3EBF4E084E08283AB
:102430001482138280E890E096838583AFE8B4E04D
:1024400082E015968C93159786E116968C931697D5
:10245000ECE7F2E0E4911796EC931797E6E3F2E0ED
:10246000E4911896EC93189740E85EE360E070E022
:102470001D964D935D936D937C93509753968C93DB
:1024800053978AE492E055969C938E9354970A2E24
:102490001B2E57961C920E92112456974FEF5FEF0A
:1024A000BA0158964D935D936D937C935B978CE343
:1024B00092E05D969C938E935C970A2E1B2E5F96FE
:1024C0001C920E9211245E9790964D935D936D939E
:1024D0007C939397E0E8F4E08EE292E0918380832E
:1024E00089E28483158216821086178212861186ED
:1024F00089E390E3A0E0B0E083879487A587B6875F
:102500000895CF93DF93CDB7DEB7C854D1090FB686
:10251000F894DEBF0FBECDBF789484B5826084BDD1
:1025200084B5816084BD85B5826085BD85B58160D7
:1025300085BD80916E00816080936E001092810055
:102540008091810082608093810080918100816010
:1025500080938100809180008160809380008091D1
:10256000B10084608093B1008091B000816080935D
:10257000B0008091910082608093910080919100E1
:1025800081608093910080919000816080939000A1
:102590008091A10082608093A1008091A100816060
:1025A0008093A1008091A00081608093A000809121
:1025B00021018260809321018091210181608093BB
:1025C00021018091200181608093200180917A0017
:1025D000846080937A0080917A00826080937A0090
:1025E00080917A00816080937A0080917A0080687F
:1025F00080937A001092C100E091E703F091E80324
:1026000082E08083E091E303F091E4031082E091A3
:10261000E503F091E6038FEC80831092EF03E091E5
:10262000EB03F091EC0386E08083E091E903F09105
:10263000EA03808180618083E091E903F091EA03FD
:10264000808188608083E091E903F091EA038081D2
:1026500080688083E091E903F091EA0380818F7DB7
:10266000808386E090E00E9466178C0188E4F80180
:10267000808384E794E092838183138280E290E0F8
:10268000958384831093B4040093B3040E943304AD
:1026900081E0F8018383C8010E947605811105C09D
:1026A00088E892E00E94650AFFCF80E894E00E94EB
:1026B0009A09811105C08BE992E00E94140AFFCFAC
:1026C00062E0809194040E9422020E94AA02605D4E
:1026D00077408109910960939804709399048093DD
:1026E0009A0490939B0487E38093A1040AE412E088
:1026F0008CE3E82E82E0F82E90E4D92E0E94AA0204
:102700008090540390905503A0905603B0905703C7
:10271000681979098A099B09683B7B408105910505
:1027200008F451C10E94AA026093540370935503A8
:1027300080935603909357031A8309838091A504CD
:102740009091A6049C838B838091A7049091A80408
:10275000A091A904B091AA048D839E83AF83B8870A
:10276000BE016B5D7F4FCE0101960E94230F89ADA4
:102770009AADABADBCAD8093500390935103A09341
:102780005203B0935303FA82E9828091AD04909191
:10279000AE049C838B838091AF049091B004A09190
:1027A000B104B091B2048D839E83AF83B887BE011C
:1027B0006B5D7F4FCE0101960E94120E89AD9AADDE
:1027C000ABADBCAD80934C0390934D03A0934E03EF
:1027D000B0934F03BE016F5F7F4F80E894E00E948B
:1027E000C80B8D899E89AF89B88D809348039093DB
:1027F0004903A0934A03B0934B036091B6047091D0
:10280000B7048091B8049091B904682B792B716C4E
:1028100081E00E947B0860E070E883E00E947B0812
:1028200070E060E082E00E947B0881E00E9417096E
:1028300097FFFBCF80E00E9417092091B504022E7C
:1028400002C0969587950A94E2F7222329F0811514
:1028500028E0920708F0906F909347038093460317
:10286000BC01990F880B990B0E943F1620E030E0C5
:1028700040E450E40E94F41620E030E04AE754E4DB
:102880000E949C1524E13EEA47E051E40E94F416C0
:1028900060934203709343038093440390934503F2
:1028A00080917B00877F80937B00D0927C00809119
:1028B0007A00806480937A0080917A0086FDFCCF54
:1028C0008091780090917900609146037091470360
:1028D000072E000C880B990B0E943F1627E73EEB52
:1028E0004FE95CE30E94F41660933E0370933F034C
:1028F000809340039093410386E592E00E94650A2D
:102900008EEA92E00E94140A609150037091510384
:10291000809152039091530342E00E94730A8CEB22
:1029200092E00E94650A80EC92E00E94140A609195
:102930004C0370914D0380914E0390914F0342E000
:102940000E94730A8BEC92E00E94650A82ED92E08D
:102950000E94140A609142037091430380914403E2
:102960009091450342E00E94730A8CED92E00E9430
:10297000650A8FED92E00E94140A60913E03709107
:102980003F03809140039091410342E00E94730A0B
:1029900089EE92E00E94650A8CEE92E00E94140A91
:1029A000609148037091490380914A0390914B03D1
:1029B00042E00E94730A84EF92E00E94650A86E575
:1029C00092E00E94650A0E94B90398CEA1E21A2EF5
:1029D000AA1BBB1BFD010DC0AA1FBB1FEE1FFF1FC3
:1029E000A217B307E407F50720F0A21BB30BE40B13
:1029F000F50B661F771F881F991F1A9469F760955A
:102A00007095809590959B01AC01BD01CF01089513
:102A1000EE0FFF1F881F8BBF0790F691E02D1994D2
:102A20000E941B15A59F900DB49F900DA49F800D33
:102A3000911D11240895A29FB001B39FC001A39FCF
:102A4000700D811D1124911DB29F700D811D1124E7
:102A5000911D08955058BB27AA270E9442150C9437
:102A6000B5160E94A71638F00E94AE1620F039F471
:102A70009F3F19F426F40C94A4160EF4E095E7FB9E
:102A80000C949E16E92F0E94C61658F3BA176207D7
:102A900073078407950720F079F4A6F50C94E816DF
:102AA0000EF4E0950B2EBA2FA02D0B01B901900169
:102AB0000C01CA01A0011124FF27591B99F0593FAD
:102AC00050F4503E68F11A16F040A22F232F342FF5
:102AD0004427585FF3CF469537952795A795F04043
:102AE0005395C9F77EF41F16BA0B620B730B840B58
:102AF000BAF09150A1F0FF0FBB1F661F771F881F10
:102B0000C2F70EC0BA0F621F731F841F48F4879567
:102B100077956795B795F7959E3F08F0B0CF939559
:102B2000880F08F09927EE0F9795879508950E94D2
:102B30007A1608F481E008950E94B0150C94B51639
:102B40000E94AE1658F00E94A71640F029F45F3F8D
:102B500029F00C949E1651110C94E9160C94A416AD
:102B60000E94C61668F39923B1F3552391F3951B80
:102B7000550BBB27AA2762177307840738F09F5F9E
:102B80005F4F220F331F441FAA1FA9F335D00E2E0B
:102B90003AF0E0E832D091505040E695001CCAF778
:102BA0002BD0FE2F29D0660F771F881FBB1F26173B
:102BB00037074807AB07B0E809F0BB0B802DBF0112
:102BC000FF2793585F4F3AF09E3F510578F00C94E1
:102BD0009E160C94E9165F3FE4F3983ED4F3869575
:102BE00077956795B795F7959F5FC9F7880F911D02
:102BF0009695879597F90895E1E0660F771F881FEE
:102C0000BB1F621773078407BA0720F0621B730BA0
:102C1000840BBA0BEE1F88F7E09508950E94CE163C
:102C200088F09F5798F0B92F9927B751B0F0E1F08D
:102C3000660F771F881F991F1AF0BA95C9F714C03D
:102C4000B13091F00E94E816B1E008950C94E816B6
:102C5000672F782F8827B85F39F0B93FCCF3869576
:102C600077956795B395D9F73EF4909580957095D3
:102C700061957F4F8F4F9F4F0895E89409C097FB50
:102C80003EF490958095709561957F4F8F4F9F4F43
:102C90009923A9F0F92F96E9BB279395F695879587
:102CA00077956795B795F111F8CFFAF4BB0F11F44A
:102CB00060FF1BC06F5F7F4F8F4F9F4F16C08823F1
:102CC00011F096E911C0772321F09EE8872F762F27
:102CD00005C0662371F096E8862F70E060E02AF068
:102CE0009A95660F771F881FDAF7880F9695879554
:102CF00097F90895990F0008550FAA0BE0E8FEEF29
:102D000016161706E807F907C0F012161306E407AF
:102D1000F50798F0621B730B840B950B39F40A26A8
:102D200061F0232B242B252B21F408950A2609F486
:102D3000A140A6958FEF811D811D089597F99F678A
:102D400080E870E060E008959FEF80EC0895002433
:102D50000A941616170618060906089500240A9400
:102D600012161306140605060895092E0394000C86
:102D700011F4882352F0BB0F40F4BF2B11F460FF15
:102D800004C06F5F7F4F8F4F9F4F089557FD90583E
:102D9000440F551F59F05F3F71F04795880F97FB1F
:102DA000991F61F09F3F79F08795089512161306D9
:102DB0001406551FF2CF4695F1DF08C01616170608
:102DC0001806991FF1CF869571056105089408953D
:102DD000E894BB2766277727CB0197F908950E94CF
:102DE0007A1608F48FEF08950E9407170C94B51611
:102DF0000E94A71638F00E94AE1620F0952311F01D
:102E00000C949E160C94A41611240C94E9160E949E
:102E1000C61670F3959FC1F3950F50E0551F629F42
:102E2000F001729FBB27F00DB11D639FAA27F00D23
:102E3000B11DAA1F649F6627B00DA11D661F829F4A
:102E40002227B00DA11D621F739FB00DA11D621F2F
:102E5000839FA00D611D221F749F3327A00D611D4C
:102E6000231F849F600D211D822F762F6A2F11242E
:102E70009F5750409AF0F1F088234AF0EE0FFF1F61
:102E8000BB1F661F771F881F91505040A9F79E3FB8
:102E9000510580F00C949E160C94E9165F3FE4F304
:102EA000983ED4F3869577956795B795F795E7950E
:102EB0009F5FC1F7FE2B880F911D9695879597F917
:102EC00008950E947A16880B990B08950F931F930B
:102ED000CF93DF938230910510F482E090E0E0918F
:102EE000BF04F091C00430E020E0B0E0A0E03097F3
:102EF00099F42115310509F44AC0281B390B2430F7
:102F00003105D8F58A819B816115710589F1FB0135
:102F100093838283FE0111C040815181028113811C
:102F200048175907E0F04817590799F4109761F0CE
:102F300012960C93129713961C933296CF01DF9141
:102F4000CF911F910F9108950093BF041093C00477
:102F5000F4CF2115310551F04217530738F0A9017C
:102F6000DB019A01BD01DF01F801C1CFEF01F9CF0B
:102F70009093C0048093BF04CDCFFE01E20FF31FF6
:102F8000819391932250310939832883D7CF20919F
:102F9000BD043091BE04232B41F4209102023091F4
:102FA00003023093BE042093BD04209100023091AF
:102FB00001022115310541F42DB73EB740910402BD
:102FC00050910502241B350BE091BD04F091BE0425
:102FD000E217F307A0F42E1B3F0B2817390778F0F0
:102FE000AC014E5F5F4F2417350748F04E0F5F1F4F
:102FF0005093BE044093BD04819391939FCFF0E022
:10300000E0E09CCFCF93DF930097E9F0FC0132978B
:1030100013821282A091BF04B091C004ED0130E090
:1030200020E01097A1F420813181820F931F20911D
:10303000BD043091BE042817390709F061C0F09330
:10304000BE04E093BD04DF91CF910895EA01CE174D
:10305000DF07E8F54A815B819E0141155105B1F713
:10306000E901FB83EA8349915991C40FD51FEC17FD
:10307000FD0761F4808191810296840F951FE9011B
:1030800099838883828193819B838A83F0E0E0E047
:1030900012968D919C9113970097B9F52D913C91C3
:1030A0001197CD010296820F931F2091BD0430919C
:1030B000BE042817390739F6309751F51092C0042D
:1030C0001092BF04B093BE04A093BD04BCCFD383C1
:1030D000C28340815181840F951FC817D90761F4BD
:1030E0004E5F5F4F88819981480F591F51834083FC
:1030F0008A819B81938382832115310509F0B0CFAA
:10310000F093C004E093BF049ECFFD01DC01C0CF6B
:1031100013821282D7CFFB01DC014150504048F0AE
:1031200001900D920020C9F701C01D9241505040FE
:08313000E0F70895F894FFCFC9
:103138000000C1048000000000004C03B602E30256
:1031480099031403F202060300000000F606C906FC
:1031580025079F06C206AF06A00600000000EA0386
:10316800510BEB03C80B7F0B0000000079084F0BD5
:103178007A08120E960D000000007908530B7A08A1
:10318800230F920E0D0A006E616E00696E66006F65
:103198007666004448543131004448543132004482
:1031A80048543231004448543232004448543F00B5
:1031B80054534C3235363100414453313131352086
:1031C800646F6E277420696E69740054434C3235FD
:1031D800363120646F6E277420696E6974005465F7
:1031E8006D70657261747572653A2000C2B04300F3
:1031F80048756D69646974793A200020672F6DC23B
:10320800B300566F6C746167653A2000205600431E
:10321800757272656E743A20002041004C696768C7
:0A322800743A2000206C7578000055
:00000001FF
